:100000000C9434000C9446000C9446000C9446006A
:100010000C9446000C9446000C9446000C94460048
:100020000C9446000C9446000C9446000C94460038
:100030000C9446000C9446000C9446000C94460028
:100040000C9446000C9446000C9446000C94460018
:100050000C9446000C9446000C9446000C94460008
:100060000C9446000C94460011241FBECFEFD8E03C
:10007000DEBFCDBF11E0A0E0B1E001C01D92A43011
:10008000B107E1F70E9483010C94A4010C940000D5
:1000900083EA84BD83E085BD16BC10926E0008958E
:1000A000019711F45F9A01C05F986115710511F411
:1000B00017BC01C067BD4130510511F45C9A01C005
:1000C0005C982115310511F418BC089528BD0895D8
:1000D0001092800085E0809381001092820010923F
:1000E00085001092840010926F00089580910201A3
:1000F000909103012BEF8430920731F12BEF853083
:10010000920744F426EF89309207D9F08650994F30
:1001100081F525C02EEF8130920761F080509F4F0E
:1001200041F581E090E060E070E041E050E020E0E7
:1001300030E012C081E090E064E670E041E050E021
:1001400009C080E090E002C081E090E064E670E0E9
:1001500040E050E024E630E00E945000089580E046
:1001600090E064E670E041E050E024E630E00E9478
:1001700050000895189BFECF8091840090918500D7
:1001800090930101809300011092850010928400E9
:1001900007970497D8F41899FECF209184003091E6
:1001A0008500309301012093000110928500109288
:1001B0008400C9010797049710F480E0089529513D
:1001C00030402330310510F481E008958FEF089519
:1001D0000F931F93CF93DF93C0E0D0E00E94BA004B
:1001E0008823B9F52196C830D105C1F7C0E0D0E029
:1001F0000E94BA00813069F52196C630D105C1F759
:100200000E94BA00882329F50E94BA00813009F5BE
:100210001092030110920201C0E0D0E001E010E072
:100220000E94BA00813089F498010C2E02C0220F7E
:10023000331F0A94E2F78091020190910301822B0F
:10024000932B90930301809302012196C031D10535
:1002500039F7DF91CF911F910F910895109285008A
:10026000109284000EC080918400909185008B5183
:10027000964038F080E09FEF909303018093020155
:1002800008951899F0CF1092850010928400189B61
:10029000FECF80918400909185009093010180931E
:1002A000000110928500109284008C5890400297B3
:1002B00048F51899FECF2091840030918500309345
:1002C0000101209300011092850010928400C90161
:1002D00084549040059718F40E94E8000895225233
:1002E00030402330310570F4189BFECF809184009C
:1002F00090918500909301018093000110928500F8
:1003000010928400089582EF8AB98EEF84B98BB180
:100310008D608BB9289A83EA84BD83E085BD16BCC5
:1003200010926E001092800085E080938100109200
:100330008200109285001092840010926F000E943B
:0C0340002E010E947600FBCFF894FFCF46
:00000001FF
