:100000000C9434000C9451000C9451000C94830116
:100010000C9451000C9451000C9451000C9451001C
:100020000C9451000C9451000C9451000C9451000C
:100030000C9451000C9451000C9451000C945100FC
:100040000C9451000C9451000C9451000C945100EC
:100050000C9451000C9479000C9451000C945100B4
:100060000C9451000C94510011241FBECFEFD8E026
:10007000DEBFCDBF12E0A0E0B1E0E4ECFEE102C0E3
:1000800005900D92AA32B107D9F712E0AAE2B2E0C8
:1000900001C01D92A034B107E1F70E940D090C9434
:1000A000600F0C94000083EA84BD83E085BD16BC1C
:1000B00010926E000895019711F45F9A01C05F9845
:1000C0006115710511F417BC01C067BD41305105C0
:1000D00011F45C9A01C05C982115310511F418BC2B
:1000E000089528BD089580937C008BEC80937A005E
:1000F00008951F920F920FB60F921124DF92EF9284
:10010000FF920F931F932F933F934F935F936F93A0
:100110007F938F939F93AF93BF93EF93FF938091C0
:100120007A008F7780937A0060917800D090790080
:1001300070E080E090E00E94BB0C7B018C017D2D83
:1001400060E0882777FD8095982F0E945D0C9B01C9
:10015000AC01C801B7010E94A60A20E030E040EAE5
:1001600050E40E94D30A20E030E040E85AE30E94C5
:10017000D30A7B018C01CB01D80180933C02909380
:100180003D02A0933E02B0933F0280917C008434F4
:1001900009F441C0853450F4823439F1833480F558
:1001A000803469F0813409F061C014C0863409F4E8
:1001B00048C08634D8F1873409F058C04DC0C70113
:1001C000D8018093000190930101A0930201B093A4
:1001D00003014CC0C701D80180930401909305012D
:1001E000A0930601B093070141C0C701D8018093D5
:1001F000080190930901A0930A01B0930B0136C046
:10020000C701D80180930C0190930D01A0930E01BA
:10021000B0930F012BC0C701D801809310019093B8
:100220001101A0931201B093130120C0C701D8019E
:100230008093140190931501A0931601B0931701B8
:1002400015C0C701D8018093180190931901A0939C
:100250001A01B0931B010AC0C701D80180931C0189
:1002600090931D01A0931E01B0931F018091200166
:100270008F5F80932001883419F480E480932001FB
:100280008091200180937C008BEC80937A00FF9119
:10029000EF91BF91AF919F918F917F916F915F91FE
:1002A0004F913F912F911F910F91FF90EF90DF9011
:1002B0000F900FBE0F901F90189580E090E030E4F3
:1002C0002998232F2A95F1F7299A232F2A95F1F7B8
:1002D000019688319105A1F7089580E090E030E41F
:1002E0002A98232F2A95F1F72A9A232F2A95F1F796
:1002F000019688319105A1F7089581E08093680007
:1003000080936B0008951F920F920FB60F921124E5
:100310008F939F9380913202909133020196909334
:100320003302809332029F918F910F900FBE0F90F6
:100330001F9018950F931F93109233021092320260
:1003400010E005E30E945D0180E0902F9A95F1F79F
:100350008F5F8633D1F71F5F1431A1F7809132028E
:100360009091330245970CF447C080912B02813065
:1003700021F080912C02833031F580E090E064E63A
:1003800070E040E050E024E630E00E945B0020E0B6
:1003900040E45CE9CA010197F1F72F5F2233D1F7FE
:1003A00080E090E064E670E041E050E024E630E078
:1003B0000E945B0020E040E45CE9CA010197F1F78C
:1003C0002F5F2233D1F780912C02813009F091C048
:1003D00081E090E064E670E041E050E024E630E047
:1003E0000E945B0020E040E45CE9CA010197F1F75C
:1003F0002F5F2E31D1F77DC010923302109232025E
:1004000010E005E30E946D0180E0902F9A95F1F7CE
:100410008F5F8633D1F71F5F1431A1F780913202CD
:100420009091330220912B0245970CF444C0213067
:1004300021F080912C02833031F580E090E064E679
:1004400070E040E050E024E630E00E945B0020E0F5
:1004500040E45CE9CA010197F1F72F5F2233D1F73D
:1004600081E090E064E670E040E050E024E630E0B7
:100470000E945B0020E040E45CE9CA010197F1F7CB
:100480002F5F2233D1F780912C02813021F581E05A
:1004900090E064E670E041E050E024E630E00E9445
:1004A0005B0020E040E45CE9CA010197F1F72F5FAF
:1004B0002E31D1F710C0213021F080912C028330F1
:1004C00051F481E090E064E670E041E050E024E621
:1004D00030E00E945B0080912C02813051F481E079
:1004E00090E060E070E041E050E020E030E00E9409
:1004F0005B001F910F9108954F925F926F927F92D0
:100500008F929F92AF92BF92CF92DF92EF92FF9223
:100510000F931F93DF93CF9300D000D0CDB7DEB7FA
:100520008091000190910101A0910201B09103011D
:1005300089839A83AB83BC8360912D0270E0615004
:100540007040882777FD8095982F0E945D0C2B01C5
:100550003C0169817A818B819C81A30192010E9477
:10056000CD0B18160CF062C280900401909005012A
:10057000A0900601B090070160912E0270E06150DA
:100580007040882777FD8095982F0E945D0C6B0145
:100590007C0110E0C501B401A70196010E94CD0BBA
:1005A00018160CF04FC011E060912F0270E06150FE
:1005B0007040882777FD8095982F0E945D0C9B01E5
:1005C000AC01609108017091090180910A0190913C
:1005D0000B010E942D0C8823ACF56091300270E075
:1005E00061507040882777FD8095982F0E945D0CA0
:1005F0009B01AC0160910C0170910D0180910E0185
:1006000090910F010E94CD0B1816FCF460913102FD
:1006100070E061507040882777FD8095982F0E9488
:100620005D0C9B01AC0160911C0170911D018091DA
:100630001E0190911F010E94CD0B181634F481E029
:1006400090E0F4C0112309F452C060912F0270E0D1
:1006500061507040882777FD8095982F0E945D0C2F
:100660009B01AC01609108017091090180910A0120
:1006700090910B010E942D0C8823CCF560913002E3
:1006800070E061507040882777FD8095982F0E9418
:100690005D0C9B01AC0160910C0170910D0180918A
:1006A0000E0190910F010E942D0C882304F560919A
:1006B000310270E061507040882777FD8095982F57
:1006C0000E945D0C9B01AC0160911C0170911D01A9
:1006D00080911E0190911F010E94CD0B18163CF4D1
:1006E00080E090E060E070E041E050E06FC21123F4
:1006F00009F44CC060912F0270E06150704088276F
:1007000077FD8095982F0E945D0C9B01AC01609154
:1007100008017091090180910A0190910B010E94DA
:10072000CD0B18169CF56091300270E0615070405E
:10073000882777FD8095982F0E945D0C9B01AC0166
:1007400060910C0170910D0180910E0190910F014B
:100750000E942D0C8823D4F46091310270E0615026
:100760007040882777FD8095982F0E945D0C9B0133
:10077000AC0160911C0170911D0180911E0190914E
:100780001F010E94CD0B18160CF4AACF112309F4F7
:1007900050C060912F0270E061507040882777FD53
:1007A0008095982F0E945D0C9B01AC01609108011F
:1007B0007091090180910A0190910B010E94CD0B6B
:1007C0001816BCF56091300270E0615070408827C7
:1007D00077FD8095982F0E945D0C9B01AC01609184
:1007E0000C0170910D0180910E0190910F010E94FA
:1007F0002D0C8823F4F46091310270E06150704058
:10080000882777FD8095982F0E945D0C9B01AC0195
:1008100060911C0170911D0180911E0190911F013A
:100820000E942D0C88232CF480E090E064E670E0B8
:100830005BCF112309F44CC060912F0270E061502E
:100840007040882777FD8095982F0E945D0C9B0152
:10085000AC01609108017091090180910A019091A9
:100860000B010E94CD0B18169CF56091300270E0D0
:1008700061507040882777FD8095982F0E945D0C0D
:100880009B01AC0160910C0170910D0180910E01F2
:1008900090910F010E94CD0B1816D4F46091310293
:1008A00070E061507040882777FD8095982F0E94F6
:1008B0005D0C9B01AC0160911C0170911D01809148
:1008C0001E0190911F010E942D0C88230CF4ACCFC7
:1008D00010E0C501B401A70196010E942D0C8823E8
:1008E0000CF04DC011E060912F0270E0615070403B
:1008F000882777FD8095982F0E945D0C9B01AC01A5
:10090000609108017091090180910A0190910B0199
:100910000E942D0C88239CF56091300270E061509C
:100920007040882777FD8095982F0E945D0C9B0171
:10093000AC0160910C0170910D0180910E019091BC
:100940000F010E94CD0B1816ECF46091310270E09B
:1009500061507040882777FD8095982F0E945D0C2C
:100960009B01AC0160911C0170911D0180911E01E1
:1009700090911F010E94CD0B181624F44EC0112334
:1009800009F454C060912F0270E0615070408827D4
:1009900077FD8095982F0E945D0C9B01AC016091C2
:1009A00008017091090180910A0190910B010E9448
:1009B000CD0B1816DCF56091300270E0615070408C
:1009C000882777FD8095982F0E945D0C9B01AC01D4
:1009D00060910C0170910D0180910E0190910F01B9
:1009E0000E94CD0B181614F56091310270E0615031
:1009F0007040882777FD8095982F0E945D0C9B01A1
:100A0000AC0160911C0170911D0180911E019091BB
:100A10001F010E94CD0B18164CF481E090E064E6B3
:100A200070E040E050E020E030E0D2C069817A819F
:100A30008B819C81A30192010E942D0C88230CF0D4
:100A4000C9C0A0900401B0900501C0900601D090EB
:100A5000070160912E0270E061507040882777FD99
:100A60008095982F0E945D0C7B018C01C601B50119
:100A7000A80197010E942D0C88230CF04CC06091B6
:100A80002F0270E061507040882777FD8095982F85
:100A90000E945D0C9B01AC016091080170910901FD
:100AA00080910A0190910B010E94CD0B18169CF5C4
:100AB0006091300270E061507040882777FD80952A
:100AC000982F0E945D0C9B01AC0160910C0170910C
:100AD0000D0180910E0190910F010E94CD0B18160F
:100AE000D4F46091310270E061507040882777FD46
:100AF0008095982F0E945D0C9B01AC0160911C01B8
:100B000070911D0180911E0190911F010E94CD0BDB
:100B100018160CF455C0C601B501A80197010E9432
:100B2000CD0B18160CF056C060912F0270E061508A
:100B30007040882777FD8095982F0E945D0C9B015F
:100B4000AC01609108017091090180910A019091B6
:100B50000B010E94CD0B18160CF03CC060913002C6
:100B600070E061507040882777FD8095982F0E9433
:100B70005D0C9B01AC0160910C0170910D018091A5
:100B80000E0190910F010E94CD0B18161CF560917B
:100B9000310270E061507040882777FD8095982F72
:100BA0000E945D0C9B01AC0160911C0170911D01C4
:100BB00080911E0190911F010E94CD0B181654F4D4
:100BC00081E090E064E670E040E050E024E630E050
:100BD0000E945B000F900F900F900F90CF91DF91CC
:100BE0001F910F91FF90EF90DF90CF90BF90AF904B
:100BF0009F908F907F906F905F904F90089581307D
:100C0000A1F460912D0270E0882777FD8095982FE0
:100C10000E945D0C9B01AC0160910001709101018B
:100C2000809102019091030141C08230A1F4609152
:100C30002E0270E0882777FD8095982F0E945D0C2A
:100C40009B01AC0160910401709105018091060146
:100C5000909107012BC08330A1F460912F0270E0C6
:100C6000882777FD8095982F0E945D0C9B01AC0131
:100C7000609108017091090180910A0190910B0126
:100C800015C08430D1F46091300270E0882777FD80
:100C90008095982F0E945D0C9B01AC0160910C0126
:100CA00070910D0180910E0190910F010E94CD0B6A
:100CB0001816E4F02D9A2C9808958530E1F460918F
:100CC000310270E0882777FD8095982F0E945D0C97
:100CD0009B01AC0160911001709111018091120192
:100CE000909113010E94CD0B18161CF42C9A2D988C
:100CF00008952D9A2C980895EF92FF920F931F93C9
:100D0000E0901001F0901101009112011091130177
:100D1000C801B70120E030E040E85FE30E94CD0B5E
:100D200018168CF4C801B70120E030E040E050E430
:100D30000E942D0C88233CF480E090E064E670E093
:100D400041E050E01AC0C801B70120E030E040E8BF
:100D500050E40E94CD0B18169CF4C801B70120E0A6
:100D600030E040EA50E40E942D0C88234CF481E0EE
:100D700090E064E670E040E050E024E630E008C037
:100D800081E090E060E070E041E050E020E030E0A1
:100D90000E945B001F910F91FF90EF9008951092B9
:100DA000800085E08093810010928200109285007F
:100DB0001092840010926F00089580913A029091F1
:100DC0003B022BEF8430920731F12BEF85309207F5
:100DD00044F426EF89309207D9F08650994F81F577
:100DE00025C02EEF8130920761F080509F4F41F572
:100DF00081E090E060E070E041E050E020E030E031
:100E000012C081E090E064E670E041E050E009C08B
:100E100080E090E002C081E090E064E670E040E0B5
:100E200050E024E630E00E945B00089580E090E00E
:100E300064E670E041E050E024E630E00E945B00B0
:100E40000895189BFECF8091840090918500909327
:100E5000390280933802109285001092840007971F
:100E60000497D8F41899FECF209184003091850022
:100E7000309339022093380210928500109284003A
:100E8000C9010797049710F480E008952951304074
:100E90002330310510F481E008958FEF08950F930A
:100EA0001F93CF93DF93C0E0D0E00E9421078823F7
:100EB000B9F52196C830D105C1F7C0E0D0E00E9455
:100EC0002107813069F52196C630D105C1F70E940E
:100ED0002107882329F50E942107813009F5109206
:100EE0003B0210923A02C0E0D0E001E010E00E9424
:100EF0002107813089F498010C2E02C0220F331F84
:100F00000A94E2F780913A0290913B02822B932B54
:100F100090933B0280933A022196C031D10539F774
:100F2000DF91CF911F910F9108951092850010923B
:100F300084000EC080918400909185008B51964072
:100F400038F080E09FEF90933B0280933A0208953F
:100F50001899F0CF1092850010928400189BFECF54
:100F6000809184009091850090933902809338029B
:100F700010928500109284008C589040029748F59A
:100F80001899FECF2091840030918500309339026A
:100F9000209338021092850010928400C901845475
:100FA0009040059718F40E944F0708952252304050
:100FB0002330310570F4189BFECF8091840090910E
:100FC0008500909339028093380210928500109228
:100FD0008400089590E035E325ED2B9A832F8A95C0
:100FE000F1F72B98822F8A95F1F79F5F9530A9F73B
:100FF0000895EF92FF920F931F93E0901401F090E9
:1010000015010091160110911701C801B70120E0E8
:1010100030E040E950E40E94CD0B181654F4C801AA
:10102000B70120E030E040EC50E40E942D0C87FD39
:1010300081C0C801B70120E030E040E050E00E94EC
:10104000FD0B8823D4F0C801B70120E030E040E078
:101050005FE30E942D0C882384F480E29EE40197D4
:10106000F1F70E94EA0780912A02982F9F5F9093E0
:101070002A02853008F05EC027C0C801B70120E011
:1010800030E040E05FE30E94FD0B88233CF1C801A3
:10109000B70120E030E040E050E40E942D0C8823AE
:1010A000ECF480E29EE40197F1F70E94EA07909148
:1010B0002A02892F8150853058F4E92FF0E0E45D51
:1010C000FD4F80818F5F8083892F0E94FF0532C092
:1010D00080912B028F5F80932B022CC0C801B70137
:1010E00020E030E040E050E40E94FD0B882314F142
:1010F000C801B70120E030E040E450E40E942D0C2C
:101100008823C4F480E29EE40197F1F70E94EA0785
:1011100090912A02892F8150853038F4E92FF0E030
:10112000E45DFD4F80818150CECF80912C028F5F96
:1011300080932C021F910F91FF90EF900895809162
:101140002A02863021F42D982C980E947C028091EE
:101150002B02813031F080912C02813011F08330EC
:1011600071F483EC80937A002C9A81E0809368007C
:1011700080936B000E949A018BEC80937A0080919F
:101180002B02833019F42C9A0E947C0690912C0239
:101190009530B9F483EC80937A002C9A10928000F9
:1011A000909381001092820010928500109284002A
:1011B00010926F000E9495070E94DD068BEC8093D1
:1011C0007A0080912A02873071F080912B02823060
:1011D00051F0843041F080912C02823021F0843033
:1011E00011F08630C9F410922A0280912B028430CB
:1011F00011F410922B0280912C02863011F410927F
:101200002C022C9881E090E060E070E041E050E03A
:1012100020E030E00E945B00089582EF8AB98BB134
:101220008D608BB98EEF84B9289A83EA84BD83E000
:1012300085BD16BC10926E008091200180937C00C9
:101240008BEC80937A0078940E94F9070E949F08A3
:10125000FBCFA0E0B0E0EFE2F9E00C94290FDC0155
:101260002B01FA019C91923008F439C1EB0188817D
:10127000823008F433C1943069F4843009F02FC10E
:1012800011969C9111978981981709F428C1A1E2C0
:10129000B1E025C1843009F421C18230A9F4923033
:1012A00009F01DC19A01AD0188E0EA010990AE0183
:1012B000E90109929E018150C1F7E20189811196ED
:1012C0009C918923818308C1923009F407C1129649
:1012D0002D903C901397EB018A819B811496AD90E1
:1012E000BD90CD90DC901797EC80FD800E811F8122
:1012F0009101281B390BB90137FF04C066277727F6
:10130000621B730B603271050CF061C0121613067C
:101310006CF537014801062E04C0969487947794A3
:1013200067940A94D2F721E030E040E050E004C036
:10133000220F331F441F551F6A95D2F721503040AA
:10134000404050402E213F2140235123211531059B
:101350004105510521F021E030E040E050E0790105
:101360008A01E628F728082919293CC0232BD1F146
:10137000260E371E35014601062E04C0969487942A
:10138000779467940A94D2F721E030E040E050E08F
:1013900004C0220F331F441F551F6A95D2F72150F6
:1013A0003040404050402A213B214C215D212115F5
:1013B00031054105510521F021E030E040E050E0E9
:1013C00059016A01A628B728C828D9280BC0821558
:1013D00093052CF01C01AA24BB24650103C0EE2454
:1013E000FF24870111969C91D20111968C91981738
:1013F00009F445C0992339F0A80197012A193B093E
:101400004C095D0906C0A60195012E193F09400B44
:10141000510B57FD08C01182338222822483358309
:10142000468357831DC081E08183338222828827CF
:101430009927DC01821B930BA40BB50B8483958346
:10144000A683B7830DC0220F331F441F551F24836B
:101450003583468357838281938101979383828367
:101460002481358146815781DA01C9010197A1099B
:10147000B1098F5F9F4FAF4FBF4328F30BC09183DC
:1014800033822282EA0CFB1C0C1D1D1DE482F582B6
:101490000683178383E080832481358146815781C9
:1014A00057FF1AC0C901AA2797FDA095BA2F8170CE
:1014B0009070A070B0705695479537952795822B00
:1014C000932BA42BB52B84839583A683B78382812A
:1014D0009381019693838283DF0101C0D201CD0104
:1014E000CDB7DEB7E2E10C94450FA0E2B0E0EBE748
:1014F000FAE00C94350F69837A838B839C832D8368
:101500003E834F835887E9E0EE2EF12CEC0EFD1E52
:10151000CE010196B7010E94580E8E010F5E1F4F3B
:10152000CE010596B8010E94580E8A8991E089275C
:101530008A8BC701B801AE01475E5F4F0E9429093F
:101540000E94830DA096E6E00C94510FA0E2B0E05B
:10155000ECEAFAE00C94350F69837A838B839C83E1
:101560002D833E834F835887F9E0EF2EF12CEC0E4C
:10157000FD1ECE010196B7010E94580E8E010F5E2E
:101580001F4FCE010596B8010E94580EC701B80141
:10159000AE01475E5F4F0E9429090E94830DA0960D
:1015A000E6E00C94510FA0E2B0E0E9EDFAE00C9413
:1015B000290F69837A838B839C832D833E834F839A
:1015C0005887CE010196BE01675F7F4F0E94580E7B
:1015D000CE010596BE016F5E7F4F0E94580E998521
:1015E000923088F089898230C8F0943019F48230C2
:1015F00051F404C0843029F4923081F481E291E006
:10160000C6C0923049F420E09A858A89981321E077
:101610002A87CE010996BBC0823049F420E09A8522
:101620008A89981321E02A8BCE014196B0C02D847F
:101630003E844F8458886D887E888F88988CEE24ED
:10164000FF248701AA24BB24650140E050E060E04C
:1016500070E0E0E0F0E0C10181709070892BE9F06A
:10166000E60CF71C081D191D9A01AB012A0D3B1D44
:101670004C1D5D1D80E090E0A0E0B0E0E614F704B2
:101680000805190520F481E090E0A0E0B0E0BA017F
:10169000A901480F591F6A1F7B1FAA0CBB1CCC1C39
:1016A000DD1C97FE08C081E090E0A0E0B0E0A82A31
:1016B000B92ACA2ADB2A3196E032F10549F0660CD4
:1016C000771C881C991C5694479437942794C3CF51
:1016D000FA85EA892B893C898B859C85280F391FDF
:1016E0002E5F3F4F17C0CA0181709070892B61F047
:1016F00016950795F794E79480E090E0A0E0B0E8B5
:10170000E82AF92A0A2B1B2B76956795579547955A
:101710002F5F3F4F77FDE7CF0CC0440F551F661F6B
:10172000771F17FD4160EE0CFF1C001F111F215099
:101730003040403090E0590790E0690790E4790725
:1017400060F32B8F3C8FDB01CA018F779070A07004
:10175000B07080349105A105B10561F447FD0AC060
:10176000E114F1040105110529F0405C5F4F6F4F52
:101770007F4F40781A8EFE1711F081E08A8F4D8FCF
:101780005E8F6F8F78A383E0898FCE0149960E9488
:10179000830DA096E2E10C94450FA8E1B0E0E3EDE3
:1017A000FBE00C94350F69837A838B839C832D83B4
:1017B0003E834F83588789E0E82EF12CEC0EFD1E06
:1017C000CE010196B7010E94580E8E010F5E1F4F89
:1017D000CE010596B8010E94580E8985823040F0EE
:1017E0008989823028F0C701B8010E94D00E01C05B
:1017F0008FEF6896E6E00C94510FA8E1B0E0E3E0CB
:10180000FCE00C94350F69837A838B839C832D8352
:101810003E834F83588789E0E82EF12CEC0EFD1EA5
:10182000CE010196B7010E94580E8E010F5E1F4F28
:10183000CE010596B8010E94580E8985823040F08D
:101840008989823028F0C701B8010E94D00E01C0FA
:101850008FEF6896E6E00C94510FA8E1B0E0E3E367
:10186000FCE00C94350F69837A838B839C832D83F2
:101870003E834F83588789E0E82EF12CEC0EFD1E45
:10188000CE010196B7010E94580E8E010F5E1F4FC8
:10189000CE010596B8010E94580E8985823040F02D
:1018A0008989823028F0C701B8010E94D00E01C09A
:1018B00081E06896E6E00C94510FA8E0B0E0E3E622
:1018C000FCE00C94320F9B01AC0183E08983DA01C8
:1018D000C9018827B7FD83959927AA27BB27B82E6A
:1018E000211531054105510519F482E089833AC07B
:1018F0008823A9F0203080E0380780E0480780E89E
:10190000580729F460E070E080E09FEC30C0EE24DE
:10191000FF248701E21AF30A040B150B02C07901B8
:101920008A018EE1C82ED12CDC82CB82ED82FE8230
:101930000F831887C801B7010E94340D019718164C
:10194000190684F4082E04C0EE0CFF1C001F111FA2
:101950000A94D2F7ED82FE820F831887C81AD90A3B
:10196000DC82CB82BA82CE0101960E94830D28963A
:10197000E9E00C944E0FA8E0B0E0E1ECFCE00C9440
:10198000310F7B018C01611571058105910519F4F9
:1019900082E0898360C083E089838EE1C82ED12CE8
:1019A000DC82CB82ED82FE820F831887C801B701EB
:1019B0000E94340DFC013197F7FF3BC022273327EB
:1019C0002E1B3F0B57016801022E04C0D694C7940A
:1019D000B794A7940A94D2F740E050E060E070E03A
:1019E00081E090E0A0E0B0E004C0880F991FAA1F3A
:1019F000BB1F2A95D2F70197A109B1098E219F211A
:101A0000A023B1230097A105B10521F041E050E0EA
:101A100060E070E04A295B296C297D294D835E8353
:101A20006F8378878EE190E08E1B9F0B9C838B8366
:101A300012C0309781F00E2E04C0EE0CFF1C001F68
:101A4000111F0A94D2F7ED82FE820F831887CE1AF7
:101A5000DF0ADC82CB821A82CE0101960E94830DBE
:101A60002896EAE00C944D0FEF92FF920F931F938C
:101A70007B018C0180E0E81680E0F80681E0080731
:101A800080E0180788F48FEFE816F10401051105CE
:101A900031F028F088E090E0A0E0B0E017C080E0EE
:101AA00090E0A0E0B0E012C080E0E81680E0F80628
:101AB00080E0080781E0180728F088E190E0A0E0C6
:101AC000B0E004C080E190E0A0E0B0E020E230E0CF
:101AD00040E050E0281B390B4A0B5B0B04C0169505
:101AE0000795F794E7948A95D2F7F701E75DFE4FE3
:101AF0008081281B310941095109C9011F910F91AA
:101B0000FF90EF900895DF92EF92FF920F931F9353
:101B1000FC01E480F58006811781D18080818230CC
:101B200048F480E090E0A0E1B0E0E82AF92A0A2B2E
:101B30001B2BA5C0843009F49FC0823021F4EE2411
:101B4000FF24870105C0E114F1040105110519F412
:101B5000E0E0F0E096C0628173819FEF6238790720
:101B60000CF05BC022E83FEF261B370B2A31310512
:101B70002CF020E030E040E050E02AC0B801A7019E
:101B8000022E04C076956795579547950A94D2F72B
:101B900081E090E0A0E0B0E004C0880F991FAA1F88
:101BA000BB1F2A95D2F70197A109B1098E219F2168
:101BB000A023B1230097A105B10521F081E090E0B9
:101BC000A0E0B0E09A01AB01282B392B4A2B5B2B0C
:101BD000DA01C9018F779070A070B07080349105E0
:101BE000A105B10539F427FF09C0205C3F4F4F4FD5
:101BF0005F4F04C0215C3F4F4F4F5F4FE0E0F0E08C
:101C00002030A0E03A07A0E04A07A0E45A0710F00D
:101C1000E1E0F0E079018A0127C06038710564F5E0
:101C2000FB01E158FF4FD801C7018F779070A0707A
:101C3000B07080349105A105B10539F4E7FE0DC0FF
:101C400080E490E0A0E0B0E004C08FE390E0A0E08A
:101C5000B0E0E80EF91E0A1F1B1F17FF05C01695FE
:101C60000795F794E794319687E016950795F794D2
:101C7000E7948A95D1F705C0EE24FF248701EFEFA2
:101C8000F0E06E2F679566276795902F9F77D79422
:101C9000DD24D7948E2F8695492F462B582F5D290A
:101CA000B701CA011F910F91FF90EF90DF90089547
:101CB000FC01DB01408151812281622F6F7770E04E
:101CC000221F2227221F9381892F880F822B282FE2
:101CD00030E0991F9927991F11969C931197211510
:101CE0003105A9F5411551056105710511F482E031
:101CF00037C082E89FEF13969C938E9312979A01B8
:101D0000AB0167E0220F331F441F551F6A95D1F7BF
:101D100083E08C930DC0220F331F441F551F129672
:101D20008D919C911397019713969C938E93129784
:101D3000203080E0380780E0480780E4580758F3F7
:101D400014962D933D934D935C93179708952F3FD1
:101D5000310579F4411551056105710519F484E0E7
:101D60008C93089564FF03C081E08C9312C01C9291
:101D700010C02F57304013963C932E93129783E058
:101D80008C9387E0440F551F661F771F8A95D1F704
:101D9000706414964D935D936D937C93179708959B
:101DA0001F93DC01FB019C91923008F447C08081B5
:101DB000823008F443C0943051F411961C91843061
:101DC00099F58181682F70E0611B71093FC08430F3
:101DD00021F0923031F48230B9F18181882389F188
:101DE0002DC011961C9111978230F1F08181181746
:101DF000D9F412962D913C91139782819381821789
:101E0000930794F028173907BCF014968D919D9193
:101E10000D90BC91A02D24813581468157812817D2
:101E200039074A075B0718F4112341F00AC08217EB
:101E30009307A407B50740F4112319F061E070E09F
:101E400005C06FEF7FEF02C060E070E0CB011F9133
:101E500008952F923F924F925F926F927F928F924E
:101E60009F92AF92BF92CF92DF92EF92FF920F9329
:101E70001F93CF93DF93CDB7DEB7CA1BDB0B0FB633
:101E8000F894DEBF0FBECDBF09942A8839884888F0
:101E90005F846E847D848C849B84AA84B984C88486
:101EA000DF80EE80FD800C811B81AA81B981CE0F7D
:101EB000D11D0FB6F894DEBF0FBECDBFED01089562
:041EC000F894FFCFC4
:101EC400000000000000000000000000000000000E
:101ED4000000000000007F4300000000000000003C
:101EE40040000000000000000000010202030303A0
:101EF4000304040404040404040505050505050598
:101F04000505050505050505050606060606060676
:101F1400060606060606060606060606060606065D
:101F24000606060606060606060707070707070746
:101F3400070707070707070707070707070707072D
:101F4400070707070707070707070707070707071D
:101F5400070707070707070707070707070707070D
:101F640007070707070707070708080808080808F6
:101F740008080808080808080808080808080808DD
:101F840008080808080808080808080808080808CD
:101F940008080808080808080808080808080808BD
:101FA40008080808080808080808080808080808AD
:101FB400080808080808080808080808080808089D
:101FC400080808080808080808080808080808088D
:101FD400080808080808080808080808080808087D
:0A1FE40008080808080808080800AB
:00000001FF
