:100000000C9434000C9451000C9451000C94510049
:100010000C9451000C9451000C9451000C9451001C
:100020000C9451000C9451000C9451000C9451000C
:100030000C9451000C9451000C9451000C945100FC
:100040000C9451000C9451000C9451000C945100EC
:100050000C9451000C9479000C9451000C945100B4
:100060000C9451000C94510011241FBECFEFD8E026
:10007000DEBFCDBF12E0A0E0B1E0EAE8F4E102C0EB
:1000800005900D92AA32B107D9F712E0AAE2B2E0C8
:1000900001C01D92A336B107E1F70E94AF020C9494
:1000A000430A0C94000083EA84BD83E085BD16BC3E
:1000B00010926E000895019711F45F9A01C05F9845
:1000C0006115710511F417BC01C067BD41305105C0
:1000D00011F45C9A01C05C982115310511F418BC2B
:1000E000089528BD089580937C008BEC80937A005E
:1000F00008951F920F920FB60F921124DF92EF9284
:10010000FF920F931F932F933F934F935F936F93A0
:100110007F938F939F93AF93BF93EF93FF938091C0
:100120007A008F7780937A0060917800D090790080
:1001300070E080E090E00E9488077B018C017D2DBB
:1001400060E0882777FD8095982F0E94D6069B0156
:10015000AC01C801B7010E94730420E030E040EA1E
:1001600050E40E94A00420E030E040E85AE30E94FE
:10017000A0047B018C01CB01D80180935B0290939A
:100180005C02A0935D02B0935E0280917C00843497
:1001900009F441C0853450F4823439F1833480F558
:1001A000803469F0813409F061C014C0863409F4E8
:1001B00048C08634D8F1873409F058C04DC0C70113
:1001C000D8018093000190930101A0930201B093A4
:1001D00003014CC0C701D80180930401909305012D
:1001E000A0930601B093070141C0C701D8018093D5
:1001F000080190930901A0930A01B0930B0136C046
:10020000C701D80180930C0190930D01A0930E01BA
:10021000B0930F012BC0C701D801809310019093B8
:100220001101A0931201B093130120C0C701D8019E
:100230008093140190931501A0931601B0931701B8
:1002400015C0C701D8018093180190931901A0939C
:100250001A01B0931B010AC0C701D80180931C0189
:1002600090931D01A0931E01B0931F018091200166
:100270008F5F80932001883419F480E480932001FB
:100280008091200180937C008BEC80937A00FF9119
:10029000EF91BF91AF919F918F917F916F915F91FE
:1002A0004F913F912F911F910F91FF90EF90DF9011
:1002B0000F900FBE0F901F90189590E035E325ED3D
:1002C0002B9A832F8A95F1F72B98822F8A95F1F735
:1002D0009F5F9530A9F70895EF92FF920F931F93B8
:1002E000E0901401F0901501009116011091170192
:1002F000C801B70120E030E040E950E40E94460622
:10030000181654F4C801B70120E030E040EC50E486
:100310000E94A60687FD6BC0C801B70120E030E04F
:1003200040E050E00E9476068823D4F0C801B7016F
:1003300020E030E040E05FE30E94A606882384F4DA
:1003400080E49CE90197F1F70E945D0180915302DE
:10035000909154020196909354028093530247C0A7
:10036000C801B70120E030E040E05FE30E9476067C
:100370008823D4F0C801B70120E030E040EC5FE30F
:100380000E94A606882384F480E29EE40197F1F798
:100390000E945D01809155029091560201969093C2
:1003A00056028093550223C0C801B70120E030E017
:1003B00040EC5FE30E9476068823CCF0C801B701C9
:1003C00020E030E040E250E40E94A60688237CF45E
:1003D00080E29EE40197F1F70E945D01809157024F
:1003E00090915802019690935802809357021F9162
:1003F0000F91FF90EF900895AF92BF92CF92DF924E
:10040000EF92FF920F931F93CF93DF93E0915902E6
:10041000F0915A028AE080838091530290915402B5
:10042000019799F51092540210925302E090100136
:10043000F0901101009112011091130120915202CC
:10044000CAE2D2E0E992F99209931993622F70E01F
:10045000882777FD8095982F0E94D606A8019701DE
:100460000E9473040E94CA02262F32E0C235D307CD
:1004700049F760935202F999FECF80915902909109
:100480005A02622F0E94350A5FC0F999FECF80910F
:10049000590290915A020E942D0A90E0A0E0B0E02B
:1004A000BC01CD010E94880720E030E040E251E429
:1004B0000E949A057B018C0160935F027093600239
:1004C0008093610290936202A0901001B09011019C
:1004D000C0901201D090130120E030E040E05FE3D3
:1004E0000E9442049B01AC01C601B5010E94A60610
:1004F00088233CF481E090E064E670E040E050E066
:1005000016C0C801B70120E030E040E85FE30E9478
:1005100073049B01AC01C601B5010E944606181682
:100520004CF480E090E064E670E041E050E024E6C6
:1005300030E008C081E090E060E070E041E050E031
:1005400020E030E00E945B00DF91CF911F910F917E
:10055000FF90EF90DF90CF90BF90AF90089582EF23
:100560008AB98EEF84B98BB18D608BB983EA84BD73
:1005700083E085BD16BC10926E00809120018093AF
:100580007C008BEC80937A0078940E946C010E942E
:10059000FC01FBCFEF92FF920F931F937B018C0125
:1005A00020E030E040E05FE40E94760688238CF093
:1005B000C801B70120E030E040E05FE40E9442045F
:1005C0000E9434079B01AC0120503040404050480D
:1005D00006C0C801B7010E9434079B01AC01B901F4
:1005E000CA011F910F91FF90EF900895A0E0B0E035
:1005F000ECEFF2E00C94F609DC012B01FA019C917E
:10060000923008F439C1EB018881823008F433C19B
:10061000943069F4843009F02FC111969C911197A0
:100620008981981709F428C1A1E2B1E025C184307D
:1006300009F421C18230A9F4923009F01DC19A0158
:10064000AD0188E0EA010990AE01E90109929E013D
:100650008150C1F7E201898111969C9189238183A0
:1006600008C1923009F407C112962D903C9013975F
:10067000EB018A819B811496AD90BD90CD90DC906A
:100680001797EC80FD800E811F819101281B390B8B
:10069000B90137FF04C066277727621B730B6032EE
:1006A00071050CF061C0121613066CF53701480194
:1006B000062E04C096948794779467940A94D2F790
:1006C00021E030E040E050E004C0220F331F441F1F
:1006D000551F6A95D2F721503040404050402E219E
:1006E0003F2140235123211531054105510521F0BA
:1006F00021E030E040E050E079018A01E628F72867
:10070000082919293CC0232BD1F1260E371E3501AB
:100710004601062E04C096948794779467940A94B1
:10072000D2F721E030E040E050E004C0220F331F58
:10073000441F551F6A95D2F7215030404040504029
:100740002A213B214C215D2121153105410551050F
:1007500021F021E030E040E050E059016A01A62894
:10076000B728C828D9280BC0821593052CF01C0186
:10077000AA24BB24650103C0EE24FF24870111963F
:100780009C91D20111968C91981709F445C0992338
:1007900039F0A80197012A193B094C095D0906C0E7
:1007A000A60195012E193F09400B510B57FD08C0BA
:1007B00011823382228224833583468357831DC06E
:1007C00081E081833382228288279927DC01821B82
:1007D000930BA40BB50B84839583A683B7830DC0BD
:1007E000220F331F441F551F2483358346835783AD
:1007F000828193810197938382832481358146810D
:100800005781DA01C9010197A109B1098F5F9F4F93
:10081000AF4FBF4328F30BC0918333822282EA0C8F
:10082000FB1C0C1D1D1DE482F5820683178383E0EB
:100830008083248135814681578157FF1AC0C901C1
:10084000AA2797FDA095BA2F81709070A070B07004
:100850005695479537952795822B932BA42BB52B2F
:1008600084839583A683B783828193810196938342
:100870008283DF0101C0D201CD01CDB7DEB7E2E155
:100880000C94120AA0E2B0E0E8E4F4E00C94020A4E
:1008900069837A838B839C832D833E834F83588720
:1008A000E9E0EE2EF12CEC0EFD1ECE010196B70113
:1008B0000E9425098E010F5E1F4FCE010596B801DB
:1008C0000E9425098A8991E089278A8BC701B8018E
:1008D000AE01475E5F4F0E94F6020E945008A0964C
:1008E000E6E00C941E0AA0E2B0E0E9E7F4E00C9424
:1008F000020A69837A838B839C832D833E834F8393
:100900005887F9E0EF2EF12CEC0EFD1ECE0101967A
:10091000B7010E9425098E010F5E1F4FCE0105967B
:10092000B8010E942509C701B801AE01475E5F4FBB
:100930000E94F6020E945008A096E6E00C941E0A5F
:10094000A0E2B0E0E6EAF4E00C94F60969837A8369
:100950008B839C832D833E834F835887CE010196E2
:10096000BE01675F7F4F0E942509CE010596BE013B
:100970006F5E7F4F0E9425099985923088F08989A2
:100980008230C8F0943019F4823051F404C08430BD
:1009900029F4923081F481E291E0C6C0923049F4AA
:1009A00020E09A858A89981321E02A87CE0109964A
:1009B000BBC0823049F420E09A858A89981321E0EF
:1009C0002A8BCE014196B0C02D843E844F84588836
:1009D0006D887E888F88988CEE24FF248701AA2456
:1009E000BB24650140E050E060E070E0E0E0F0E052
:1009F000C10181709070892BE9F0E60CF71C081D8D
:100A0000191D9A01AB012A0D3B1D4C1D5D1D80E097
:100A100090E0A0E0B0E0E614F7040805190520F422
:100A200081E090E0A0E0B0E0BA01A901480F591FB1
:100A30006A1F7B1FAA0CBB1CCC1CDD1C97FE08C0C8
:100A400081E090E0A0E0B0E0A82AB92ACA2ADB2A17
:100A50003196E032F10549F0660C771C881C991C30
:100A60005694479437942794C3CFFA85EA892B8903
:100A70003C898B859C85280F391F2E5F3F4F17C0FF
:100A8000CA0181709070892B61F016950795F794D3
:100A9000E79480E090E0A0E0B0E8E82AF92A0A2B89
:100AA0001B2B76956795579547952F5F3F4F77FDA1
:100AB000E7CF0CC0440F551F661F771F17FD41601D
:100AC000EE0CFF1C001F111F21503040403090E001
:100AD000590790E0690790E4790760F32B8F3C8F0A
:100AE000DB01CA018F779070A070B07080349105DF
:100AF000A105B10561F447FD0AC0E114F104010547
:100B0000110529F0405C5F4F6F4F7F4F40781A8E80
:100B1000FE1711F081E08A8F4D8F5E8F6F8F78A363
:100B200083E0898FCE0149960E945008A096E2E1A9
:100B30000C94120AA8E1B0E0E0EAF5E00C94FE099A
:100B400069837A838B839C832D833E834F8358876D
:100B5000B9E0EB2EF12CEC0EFD1ECE010196B70193
:100B60000E9425098E010F5E1F4FCE010596B80128
:100B70000E9425092985223008F47EC03989323047
:100B800010F4B8017CC08A859A8989278A87243025
:100B900011F0223031F4231709F06EC061E271E0E8
:100BA0006EC0343039F41D861E861F86188A1C8656
:100BB0001B8604C0323021F484E08987B7015FC00E
:100BC0002B853C858B899C89281B390B3C872B877F
:100BD000ED84FE840F851889AD88BE88CF88D88CB7
:100BE000EA14FB040C051D0540F4EE0CFF1C001F6D
:100BF000111F215030403C872B8720E030E040E03F
:100C000050E080E090E0A0E0B0E460E070E0EA1442
:100C1000FB040C051D0540F0282B392B4A2B5B2BC0
:100C2000EA18FB080C091D09B695A79597958795B5
:100C3000EE0CFF1C001F111F6F5F7F4F6F3171059E
:100C400031F7DA01C9018F779070A070B0708034ED
:100C50009105A105B10561F427FD0AC0E114F10475
:100C60000105110529F0205C3F4F4F4F5F4F207861
:100C70002D873E874F87588BBE01675F7F4FCB0123
:100C80000E9450086896EAE00C941A0AA8E1B0E0C5
:100C9000ECE4F6E00C94020A69837A838B839C83EC
:100CA0002D833E834F83588789E0E82EF12CEC0E8C
:100CB000FD1ECE010196B7010E9425098E010F5E2F
:100CC0001F4FCE010596B8010E9425098985823003
:100CD00040F08989823028F0C701B8010E949D093F
:100CE00001C08FEF6896E6E00C941E0AA8E1B0E020
:100CF000ECE7F6E00C94020A69837A838B839C8389
:100D00002D833E834F83588789E0E82EF12CEC0E2B
:100D1000FD1ECE010196B7010E9425098E010F5ECE
:100D20001F4FCE010596B8010E94250989858230A2
:100D300040F08989823028F0C701B8010E949D09DE
:100D400001C08FEF6896E6E00C941E0AA8E1B0E0BF
:100D5000ECEAF6E00C94020A69837A838B839C8325
:100D60002D833E834F83588789E0E82EF12CEC0ECB
:100D7000FD1ECE010196B7010E9425098E010F5E6E
:100D80001F4FCE010596B8010E9425098985823042
:100D900040F08989823028F0C701B8010E949D097E
:100DA00001C081E06896E6E00C941E0AA8E0B0E07D
:100DB000ECEDF6E00C94FF099B01AC0183E0898324
:100DC000DA01C9018827B7FD83959927AA27BB2790
:100DD000B82E211531054105510519F482E08983AA
:100DE0003AC08823A9F0203080E0380780E0480727
:100DF00080E8580729F460E070E080E09FEC30C0A4
:100E0000EE24FF248701E21AF30A040B150B02C03B
:100E100079018A018EE1C82ED12CDC82CB82ED8251
:100E2000FE820F831887C801B7010E94010801974D
:100E30001816190684F4082E04C0EE0CFF1C001FBF
:100E4000111F0A94D2F7ED82FE820F831887C81A09
:100E5000D90ADC82CB82BA82CE0101960E94500868
:100E60002896E9E00C941B0AACE0B0E0EAE3F7E076
:100E70000C94060A69837A838B839C83CE01019646
:100E8000BE016B5F7F4F0E9425098D81823061F129
:100E9000823050F1843021F48E81882351F12EC0AC
:100EA0002F81388537FD20C06E812F3131051CF030
:100EB0006623F9F023C08EE190E0821B930B298515
:100EC0003A854B855C8504C056954795379527959F
:100ED0008A95D2F76623B1F05095409530952195CB
:100EE0003F4F4F4F5F4F0EC020E030E040E050E0FA
:100EF00009C02FEF3FEF4FEF5FE704C020E030E085
:100F000040E050E8B901CA012C96E2E00C94220AB4
:100F1000A8E0B0E0EEE8F7E00C94FE097B018C015C
:100F2000611571058105910519F482E0898360C01E
:100F300083E089838EE1C82ED12CDC82CB82ED82C6
:100F4000FE820F831887C801B7010E940108FC01C7
:100F50003197F7FF3BC0222733272E1B3F0B57014A
:100F60006801022E04C0D694C794B794A7940A943B
:100F7000D2F740E050E060E070E081E090E0A0E077
:100F8000B0E004C0880F991FAA1FBB1F2A95D2F793
:100F90000197A109B1098E219F21A023B1230097B8
:100FA000A105B10521F041E050E060E070E04A2980
:100FB0005B296C297D294D835E836F8378878EE161
:100FC00090E08E1B9F0B9C838B8312C0309781F027
:100FD0000E2E04C0EE0CFF1C001F111F0A94D2F746
:100FE000ED82FE820F831887CE1ADF0ADC82CB8265
:100FF0001A82CE0101960E9450082896EAE00C94CD
:101000001A0AEF92FF920F931F937B018C0180E0ED
:10101000E81680E0F80681E0080780E0180788F409
:101020008FEFE816F1040105110531F028F088E092
:1010300090E0A0E0B0E017C080E090E0A0E0B0E079
:1010400012C080E0E81680E0F80680E0080781E042
:10105000180728F088E190E0A0E0B0E004C080E14B
:1010600090E0A0E0B0E020E230E040E050E0281B5B
:10107000390B4A0B5B0B04C016950795F794E79460
:101080008A95D2F7F701E75DFE4F8081281B310971
:1010900041095109C9011F910F91FF90EF900895E7
:1010A000DF92EF92FF920F931F93FC01E480F58093
:1010B00006811781D1808081823048F480E090E001
:1010C000A0E1B0E0E82AF92A0A2B1B2BA5C0843046
:1010D00009F49FC0823021F4EE24FF24870105C06B
:1010E000E114F1040105110519F4E0E0F0E096C007
:1010F000628173819FEF623879070CF05BC022E850
:101100003FEF261B370B2A3131052CF020E030E071
:1011100040E050E02AC0B801A701022E04C0769535
:101120006795579547950A94D2F781E090E0A0E043
:10113000B0E004C0880F991FAA1FBB1F2A95D2F7E1
:101140000197A109B1098E219F21A023B123009706
:10115000A105B10521F081E090E0A0E0B0E09A01A6
:10116000AB01282B392B4A2B5B2BDA01C9018F7776
:101170009070A070B07080349105A105B10539F46C
:1011800027FF09C0205C3F4F4F4F5F4F04C0215CD9
:101190003F4F4F4F5F4FE0E0F0E02030A0E03A07D4
:1011A000A0E04A07A0E45A0710F0E1E0F0E079017E
:1011B0008A0127C06038710564F5FB01E158FF4FD3
:1011C000D801C7018F779070A070B07080349105FE
:1011D000A105B10539F4E7FE0DC080E490E0A0E080
:1011E000B0E004C08FE390E0A0E0B0E0E80EF91EAC
:1011F0000A1F1B1F17FF05C016950795F794E79464
:10120000319687E016950795F794E7948A95D1F77C
:1012100005C0EE24FF248701EFEFF0E06E2F679505
:1012200066276795902F9F77D794DD24D7948E2FCC
:101230008695492F462B582F5D29B701CA011F916A
:101240000F91FF90EF90DF900895FC01DB0140814A
:1012500051812281622F6F7770E0221F2227221F87
:101260009381892F880F822B282F30E0991F99278F
:10127000991F11969C93119721153105A9F54115D8
:1012800051056105710511F482E037C082E89FEFD6
:1012900013969C938E9312979A01AB0167E0220FED
:1012A000331F441F551F6A95D1F783E08C930DC0FF
:1012B000220F331F441F551F12968D919C91139737
:1012C000019713969C938E931297203080E03807F5
:1012D00080E0480780E4580758F314962D933D9317
:1012E0004D935C93179708952F3F310579F441157D
:1012F00051056105710519F484E08C93089564FF2C
:1013000003C081E08C9312C01C9210C02F57304054
:1013100013963C932E93129783E08C9387E0440FAF
:10132000551F661F771F8A95D1F7706414964D93E9
:101330005D936D937C93179708951F93DC01FB01D8
:101340009C91923008F447C08081823008F443C0F9
:10135000943051F411961C91843099F58181682F55
:1013600070E0611B71093FC0843021F0923031F48C
:101370008230B9F18181882389F12DC011961C91A9
:1013800011978230F1F081811817D9F412962D91BE
:101390003C911397828193818217930794F02817C9
:1013A0003907BCF014968D919D910D90BC91A02DA4
:1013B0002481358146815781281739074A075B0701
:1013C00018F4112341F00AC082179307A407B50748
:1013D00040F4112319F061E070E005C06FEF7FEF7A
:1013E00002C060E070E0CB011F9108952F923F9200
:1013F0004F925F926F927F928F929F92AF92BF9225
:10140000CF92DF92EF92FF920F931F93CF93DF93D0
:10141000CDB7DEB7CA1BDB0B0FB6F894DEBF0FBE2D
:10142000CDBF09942A88398848885F846E847D847A
:101430008C849B84AA84B984C884DF80EE80FD807C
:101440000C811B81AA81B981CE0FD11D0FB6F894F2
:10145000DEBF0FBECDBFED010895F999FECF92BD5D
:1014600081BDF89A992780B50895262FF999FECF66
:101470001FBA92BD81BD20BD0FB6F894FA9AF99AB1
:0A1480000FBE01960895F894FFCF07
:10148A000000000000000000000000000000000052
:10149A000000000000007F43000000000000000080
:1014AA0040000000000000000000010202030303E4
:1014BA0003040404040404040405050505050505DC
:1014CA0005050505050505050506060606060606BB
:1014DA0006060606060606060606060606060606A2
:1014EA00060606060606060606070707070707078B
:1014FA000707070707070707070707070707070772
:10150A000707070707070707070707070707070761
:10151A000707070707070707070707070707070751
:10152A00070707070707070707080808080808083A
:10153A000808080808080808080808080808080821
:10154A000808080808080808080808080808080811
:10155A000808080808080808080808080808080801
:10156A0008080808080808080808080808080808F1
:10157A0008080808080808080808080808080808E1
:10158A0008080808080808080808080808080808D1
:10159A0008080808080808080808080808080808C1
:0A15AA0008080808080808080800EF
:00000001FF
