:100000000C9434000C9451000C9451000C94510049
:100010000C9451000C9451000C9451000C9451001C
:100020000C9451000C9451000C9451000C9451000C
:100030000C9451000C9451000C9451000C945100FC
:100040000C9451000C9451000C9451000C945100EC
:100050000C9451000C9479000C9451000C945100B4
:100060000C9451000C94510011241FBECFEFD8E026
:10007000DEBFCDBF12E0A0E0B1E0EAE7F9E102C0E7
:1000800005900D92AA32B107D9F712E0AAE2B2E0C8
:1000900001C01D92A833B107E1F70E9453060C94EA
:1000A000BB0C0C94000083EA84BD83E085BD16BCC4
:1000B00010926E000895019711F45F9A01C05F9845
:1000C0006115710511F417BC01C067BD41305105C0
:1000D00011F45C9A01C05C982115310511F418BC2B
:1000E000089528BD089580937C008BEC80937A005E
:1000F00008951F920F920FB60F921124DF92EF9284
:10010000FF920F931F932F933F934F935F936F93A0
:100110007F938F939F93AF93BF93EF93FF938091C0
:100120007A008F7780937A0060917800D090790080
:1001300070E080E090E00E94000A7B018C017D2D40
:1001400060E0882777FD8095982F0E94A2099B0187
:10015000AC01C801B7010E94EB0720E030E040EAA3
:1001600050E40E94180820E030E040E85AE30E9482
:1001700018087B018C01CB01D80180933402909345
:100180003502A0933602B093370280917C0084340C
:1001900009F441C0853450F4823439F1833480F558
:1001A000803469F0813409F061C014C0863409F4E8
:1001B00048C08634D8F1873409F058C04DC0C70113
:1001C000D8018093000190930101A0930201B093A4
:1001D00003014CC0C701D80180930401909305012D
:1001E000A0930601B093070141C0C701D8018093D5
:1001F000080190930901A0930A01B0930B0136C046
:10020000C701D80180930C0190930D01A0930E01BA
:10021000B0930F012BC0C701D801809310019093B8
:100220001101A0931201B093130120C0C701D8019E
:100230008093140190931501A0931601B0931701B8
:1002400015C0C701D8018093180190931901A0939C
:100250001A01B0931B010AC0C701D80180931C0189
:1002600090931D01A0931E01B0931F018091200166
:100270008F5F80932001883419F480E480932001FB
:100280008091200180937C008BEC80937A00FF9119
:10029000EF91BF91AF919F918F917F916F915F91FE
:1002A0004F913F912F911F910F91FF90EF90DF9011
:1002B0000F900FBE0F901F9018958130A1F46091A0
:1002C0002D0270E0882777FD8095982F0E94A20963
:1002D0009B01AC01609100017091010180910201CC
:1002E0009091030141C08230A1F460912E0270E030
:1002F000882777FD8095982F0E94A2099B01AC0169
:1003000060910401709105018091060190910701AF
:100310002BC08330A1F460912F0270E0882777FD15
:100320008095982F0E94A2099B01AC016091080161
:100330007091090180910A0190910B0115C08430E0
:10034000D1F46091300270E0882777FD8095982F76
:100350000E94A2099B01AC0160910C0170910D01FA
:1003600080910E0190910F010E9412091816E4F07D
:100370002D9A2C9808958530E1F46091310270E057
:10038000882777FD8095982F0E94A2099B01AC01D8
:1003900060911001709111018091120190911301EF
:1003A0000E94120918161CF42C9A2D9808952D9A63
:1003B0002C98089590E035E325ED2B9A832F8A95AC
:1003C000F1F72B98822F8A95F1F79F5F9530A9F767
:1003D0000895EF92FF920F931F93E0913202F091F4
:1003E00033028AE08083E0901401F09015010091BF
:1003F000160110911701C801B70120E030E040E973
:1004000050E40E941209181654F4C801B70120E004
:1004100030E040EC50E40E94720987FD99C0C801A9
:10042000B70120E030E040E050E00E94420988231C
:10043000C4F1C801B70120E030E040E05FE30E9472
:100440007209882374F580E29EE40197F1F70E9417
:10045000DA0180912A02982F9F5F90932A028530BB
:1004600018F4892F0E945D0180912A02863009F0DC
:100470006FC02D982C9800E010E0F999FECF809184
:10048000320290913302F801E35DFD4F800F911F1E
:1004900060810E94AD0C0F5F1F4F0530110569F799
:1004A00057C0C801B70120E030E040E05FE30E94A0
:1004B000420988231CF1C801B70120E030E040EC7C
:1004C0005FE30E9472098823CCF480E29EE40197E6
:1004D000F1F70E94DA0190912A02892F815085302C
:1004E00038F4E92FF0E0E45DFD4F80818F5F2CC090
:1004F00080912B028F5F80932B022AC0C801B70125
:1005000020E030E040EC5FE30E944209882304F1E0
:10051000C801B70120E030E040E250E40E947209D7
:100520008823B4F480E29EE40197F1F70E94DA0197
:1005300090912A02892F8150853050F4E92FF0E004
:10054000E45DFD4F808181508083892F0E945D0191
:100550001F910F91FF90EF9008954F925F926F92CD
:100560007F928F929F92AF92BF92CF92DF92EF9243
:10057000FF920F931F93DF93CF9300D000D0CDB79E
:10058000DEB780912B02813009F078C3E09132020E
:10059000F09133028AE0808300913202109133029D
:1005A000EE24FF24F999FECFC8018E0D9F1D0E94F5
:1005B000A50CF701E35DFD4F80830894E11CF11C5D
:1005C00085E0E816F10471F7809100019091010136
:1005D000A0910201B091030189839A83AB83BC830C
:1005E00060912D0270E061507040882777FD809502
:1005F000982F0E94A2092B013C0169817A818B818D
:100600009C81A30192010E94120918160CF062C28B
:100610008090040190900501A0900601B090070120
:1006200060912E0270E061507040882777FD8095C0
:10063000982F0E94A2096B017C0110E0C501B40152
:10064000A70196010E94120918160CF04FC011E084
:1006500060912F0270E061507040882777FD80958F
:10066000982F0E94A2099B01AC0160910801709132
:10067000090180910A0190910B010E94720988235F
:10068000ACF56091300270E061507040882777FDD2
:100690008095982F0E94A2099B01AC0160910C01EA
:1006A00070910D0180910E0190910F010E9412092D
:1006B0001816FCF46091310270E061507040882798
:1006C00077FD8095982F0E94A2099B01AC01609153
:1006D0001C0170911D0180911E0190911F010E94CB
:1006E0001209181634F481E090E0F4C0112309F4E3
:1006F00052C060912F0270E061507040882777FDF2
:100700008095982F0E94A2099B01AC01609108017D
:100710007091090180910A0190910B010E94720968
:100720008823CCF56091300270E0615070408827DA
:1007300077FD8095982F0E94A2099B01AC016091E2
:100740000C0170910D0180910E0190910F010E949A
:100750007209882304F56091310270E061507040A5
:10076000882777FD8095982F0E94A2099B01AC01F4
:1007700060911C0170911D0180911E0190911F01DB
:100780000E94120918163CF480E090E060E070E0EE
:1007900041E050E06FC2112309F44CC060912F0278
:1007A00070E061507040882777FD8095982F0E94F7
:1007B000A2099B01AC01609108017091090180912F
:1007C0000A0190910B010E94120918169CF5609184
:1007D000300270E061507040882777FD8095982F37
:1007E0000E94A2099B01AC0160910C0170910D0166
:1007F00080910E0190910F010E9472098823D4F418
:100800006091310270E061507040882777FD8095DB
:10081000982F0E94A2099B01AC0160911C0170916C
:100820001D0180911E0190911F010E94120918164E
:100830000CF4AACF112309F450C060912F0270E08C
:1008400061507040882777FD8095982F0E94A209FB
:100850009B01AC01609108017091090180910A012E
:1008600090910B010E9412091816BCF5609130029C
:1008700070E061507040882777FD8095982F0E9426
:10088000A2099B01AC0160910C0170910D01809156
:100890000E0190910F010E9472098823F4F4609177
:1008A000310270E061507040882777FD8095982F65
:1008B0000E94A2099B01AC0160911C0170911D0175
:1008C00080911E0190911F010E94720988232CF4CF
:1008D00080E090E064E670E05BCF112309F44CC047
:1008E00060912F0270E061507040882777FD8095FD
:1008F000982F0E94A2099B01AC01609108017091A0
:10090000090180910A0190910B010E9412091816A9
:100910009CF56091300270E061507040882777FD4F
:100920008095982F0E94A2099B01AC0160910C0157
:1009300070910D0180910E0190910F010E9412099A
:100940001816D4F46091310270E06150704088272D
:1009500077FD8095982F0E94A2099B01AC016091C0
:100960001C0170911D0180911E0190911F010E9438
:10097000720988230CF4ACCF10E0C501B401A701C3
:1009800096010E94720988230CF04DC011E060911D
:100990002F0270E061507040882777FD8095982F76
:1009A0000E94A2099B01AC016091080170910901AC
:1009B00080910A0190910B010E94720988239CF595
:1009C0006091300270E061507040882777FD80951B
:1009D000982F0E94A2099B01AC0160910C017091BB
:1009E0000D0180910E0190910F010E9412091816BD
:1009F000ECF46091310270E061507040882777FD1F
:100A00008095982F0E94A2099B01AC0160911C0166
:100A100070911D0180911E0190911F010E94120989
:100A2000181624F44EC0112309F454C060912F020B
:100A300070E061507040882777FD8095982F0E9464
:100A4000A2099B01AC01609108017091090180919C
:100A50000A0190910B010E9412091816DCF56091B1
:100A6000300270E061507040882777FD8095982FA4
:100A70000E94A2099B01AC0160910C0170910D01D3
:100A800080910E0190910F010E941209181614F521
:100A90006091310270E061507040882777FD809549
:100AA000982F0E94A2099B01AC0160911C017091DA
:100AB0001D0180911E0190911F010E9412091816BC
:100AC0004CF481E090E064E670E040E050E020E02B
:100AD00030E0D2C069817A818B819C81A30192012F
:100AE0000E94720988230CF0C9C0A0900401B09044
:100AF0000501C0900601D090070160912E0270E0C0
:100B000061507040882777FD8095982F0E94A20938
:100B10007B018C01C601B501A80197010E947209F1
:100B200088230CF04CC060912F0270E0615070403F
:100B3000882777FD8095982F0E94A2099B01AC0120
:100B4000609108017091090180910A0190910B0157
:100B50000E94120918169CF56091300270E06150F5
:100B60007040882777FD8095982F0E94A2099B01ED
:100B7000AC0160910C0170910D0180910E0190917A
:100B80000F010E9412091816D4F46091310270E02E
:100B900061507040882777FD8095982F0E94A209A8
:100BA0009B01AC0160911C0170911D0180911E019F
:100BB00090911F010E94120918160CF455C0C6012D
:100BC000B501A80197010E94120918160CF056C031
:100BD00060912F0270E061507040882777FD80950A
:100BE000982F0E94A2099B01AC01609108017091AD
:100BF000090180910A0190910B010E9412091816B7
:100C00000CF03CC06091300270E061507040882769
:100C100077FD8095982F0E94A2099B01AC016091FD
:100C20000C0170910D0180910E0190910F010E94B5
:100C3000120918161CF56091310270E06150704085
:100C4000882777FD8095982F0E94A2099B01AC010F
:100C500060911C0170911D0180911E0190911F01F6
:100C60000E941209181654F481E090E064E670E0E6
:100C700040E050E024E630E00E945B000F900F90CF
:100C80000F900F90CF91DF911F910F91FF90EF90F8
:100C9000DF90CF90BF90AF909F908F907F906F909C
:100CA0005F904F90089582EF8AB98EEF84B98BB12F
:100CB0008D608BB983EA84BD83E085BD16BC10923C
:100CC0006E008091200180937C008BEC80937A00F1
:100CD00078940E94E9010E94AD02FBCFA0E0B0E051
:100CE000E4E7F6E00C946E0CDC012B01FA019C9118
:100CF000923008F439C1EB018881823008F433C1A5
:100D0000943069F4843009F02FC111969C911197A9
:100D10008981981709F428C1A1E2B1E025C1843086
:100D200009F421C18230A9F4923009F01DC19A0161
:100D3000AD0188E0EA010990AE01E90109929E0146
:100D40008150C1F7E201898111969C9189238183A9
:100D500008C1923009F407C112962D903C90139768
:100D6000EB018A819B811496AD90BD90CD90DC9073
:100D70001797EC80FD800E811F819101281B390B94
:100D8000B90137FF04C066277727621B730B6032F7
:100D900071050CF061C0121613066CF5370148019D
:100DA000062E04C096948794779467940A94D2F799
:100DB00021E030E040E050E004C0220F331F441F28
:100DC000551F6A95D2F721503040404050402E21A7
:100DD0003F2140235123211531054105510521F0C3
:100DE00021E030E040E050E079018A01E628F72870
:100DF000082919293CC0232BD1F1260E371E3501B5
:100E00004601062E04C096948794779467940A94BA
:100E1000D2F721E030E040E050E004C0220F331F61
:100E2000441F551F6A95D2F7215030404040504032
:100E30002A213B214C215D21211531054105510518
:100E400021F021E030E040E050E059016A01A6289D
:100E5000B728C828D9280BC0821593052CF01C018F
:100E6000AA24BB24650103C0EE24FF248701119648
:100E70009C91D20111968C91981709F445C0992341
:100E800039F0A80197012A193B094C095D0906C0F0
:100E9000A60195012E193F09400B510B57FD08C0C3
:100EA00011823382228224833583468357831DC077
:100EB00081E081833382228288279927DC01821B8B
:100EC000930BA40BB50B84839583A683B7830DC0C6
:100ED000220F331F441F551F2483358346835783B6
:100EE0008281938101979383828324813581468116
:100EF0005781DA01C9010197A109B1098F5F9F4F9D
:100F0000AF4FBF4328F30BC0918333822282EA0C98
:100F1000FB1C0C1D1D1DE482F5820683178383E0F4
:100F20008083248135814681578157FF1AC0C901CA
:100F3000AA2797FDA095BA2F81709070A070B0700D
:100F40005695479537952795822B932BA42BB52B38
:100F500084839583A683B78382819381019693834B
:100F60008283DF0101C0D201CD01CDB7DEB7E2E15E
:100F70000C948A0CA0E2B0E0E0ECF7E00C947A0C60
:100F800069837A838B839C832D833E834F83588729
:100F9000E9E0EE2EF12CEC0EFD1ECE010196B7011C
:100FA0000E949D0B8E010F5E1F4FCE010596B8016A
:100FB0000E949D0B8A8991E089278A8BC701B8011D
:100FC000AE01475E5F4F0E946E060E94C80AA0965F
:100FD000E6E00C94960CA0E2B0E0E1EFF7E00C94B0
:100FE0007A0C69837A838B839C832D833E834F8322
:100FF0005887F9E0EF2EF12CEC0EFD1ECE01019684
:10100000B7010E949D0B8E010F5E1F4FCE0105960A
:10101000B8010E949D0BC701B801AE01475E5F4F4A
:101020000E946E060E94C80AA096E6E00C94960CF8
:10103000A0E2B0E0EEE1F8E00C946E0C69837A83F4
:101040008B839C832D833E834F835887CE010196EB
:10105000BE01675F7F4F0E949D0BCE010596BE01CA
:101060006F5E7F4F0E949D0B9985923088F0898931
:101070008230C8F0943019F4823051F404C08430C6
:1010800029F4923081F481E291E0C6C0923049F4B3
:1010900020E09A858A89981321E02A87CE01099653
:1010A000BBC0823049F420E09A858A89981321E0F8
:1010B0002A8BCE014196B0C02D843E844F8458883F
:1010C0006D887E888F88988CEE24FF248701AA245F
:1010D000BB24650140E050E060E070E0E0E0F0E05B
:1010E000C10181709070892BE9F0E60CF71C081D96
:1010F000191D9A01AB012A0D3B1D4C1D5D1D80E0A1
:1011000090E0A0E0B0E0E614F7040805190520F42B
:1011100081E090E0A0E0B0E0BA01A901480F591FBA
:101120006A1F7B1FAA0CBB1CCC1CDD1C97FE08C0D1
:1011300081E090E0A0E0B0E0A82AB92ACA2ADB2A20
:101140003196E032F10549F0660C771C881C991C39
:101150005694479437942794C3CFFA85EA892B890C
:101160003C898B859C85280F391F2E5F3F4F17C008
:10117000CA0181709070892B61F016950795F794DC
:10118000E79480E090E0A0E0B0E8E82AF92A0A2B92
:101190001B2B76956795579547952F5F3F4F77FDAA
:1011A000E7CF0CC0440F551F661F771F17FD416026
:1011B000EE0CFF1C001F111F21503040403090E00A
:1011C000590790E0690790E4790760F32B8F3C8F13
:1011D000DB01CA018F779070A070B07080349105E8
:1011E000A105B10561F447FD0AC0E114F104010550
:1011F000110529F0405C5F4F6F4F7F4F40781A8E8A
:10120000FE1711F081E08A8F4D8F5E8F6F8F78A36C
:1012100083E0898FCE0149960E94C80AA096E2E138
:101220000C948A0CA8E1B0E0E8E1F9E00C947A0CA7
:1012300069837A838B839C832D833E834F83588776
:1012400089E0E82EF12CEC0EFD1ECE010196B701CF
:101250000E949D0B8E010F5E1F4FCE010596B801B7
:101260000E949D0B8985823040F08989823028F068
:10127000C701B8010E94150C01C08FEF6896E6E027
:101280000C94960CA8E1B0E0E8E4F9E00C947A0C38
:1012900069837A838B839C832D833E834F83588716
:1012A00089E0E82EF12CEC0EFD1ECE010196B7016F
:1012B0000E949D0B8E010F5E1F4FCE010596B80157
:1012C0000E949D0B8985823040F08989823028F008
:1012D000C701B8010E94150C01C08FEF6896E6E0C7
:1012E0000C94960CA8E1B0E0E8E7F9E00C947A0CD5
:1012F00069837A838B839C832D833E834F835887B6
:1013000089E0E82EF12CEC0EFD1ECE010196B7010E
:101310000E949D0B8E010F5E1F4FCE010596B801F6
:101320000E949D0B8985823040F08989823028F0A7
:10133000C701B8010E94150C01C081E06896E6E083
:101340000C94960CA8E0B0E0E8EAF9E00C94770C75
:101350009B01AC0183E08983DA01C9018827B7FDCD
:1013600083959927AA27BB27B82E2115310541055A
:10137000510519F482E089833AC08823A9F020300E
:1013800080E0380780E0480780E8580729F460E0EB
:1013900070E080E09FEC30C0EE24FF248701E21A69
:1013A000F30A040B150B02C079018A018EE1C82EE5
:1013B000D12CDC82CB82ED82FE820F831887C8019C
:1013C000B7010E94790A01971816190684F4082EAD
:1013D00004C0EE0CFF1C001F111F0A94D2F7ED820F
:1013E000FE820F831887C81AD90ADC82CB82BA82A0
:1013F000CE0101960E94C80A2896E9E00C94930C4D
:10140000A8E0B0E0E6E0FAE00C94760C7B018C01F9
:10141000611571058105910519F482E0898360C029
:1014200083E089838EE1C82ED12CDC82CB82ED82D1
:10143000FE820F831887C801B7010E94790AFC0158
:101440003197F7FF3BC0222733272E1B3F0B570155
:101450006801022E04C0D694C794B794A7940A9446
:10146000D2F740E050E060E070E081E090E0A0E082
:10147000B0E004C0880F991FAA1FBB1F2A95D2F79E
:101480000197A109B1098E219F21A023B1230097C3
:10149000A105B10521F041E050E060E070E04A298B
:1014A0005B296C297D294D835E836F8378878EE16C
:1014B00090E08E1B9F0B9C838B8312C0309781F032
:1014C0000E2E04C0EE0CFF1C001F111F0A94D2F751
:1014D000ED82FE820F831887CE1ADF0ADC82CB8270
:1014E0001A82CE0101960E94C80A2896EAE00C945E
:1014F000920CEF92FF920F931F937B018C0180E07F
:10150000E81680E0F80681E0080780E0180788F414
:101510008FEFE816F1040105110531F028F088E09D
:1015200090E0A0E0B0E017C080E090E0A0E0B0E084
:1015300012C080E0E81680E0F80680E0080781E04D
:10154000180728F088E190E0A0E0B0E004C080E156
:1015500090E0A0E0B0E020E230E040E050E0281B66
:10156000390B4A0B5B0B04C016950795F794E7946B
:101570008A95D2F7F701E75DFE4F8081281B31097C
:1015800041095109C9011F910F91FF90EF900895F2
:10159000DF92EF92FF920F931F93FC01E480F5809E
:1015A00006811781D1808081823048F480E090E00C
:1015B000A0E1B0E0E82AF92A0A2B1B2BA5C0843051
:1015C00009F49FC0823021F4EE24FF24870105C076
:1015D000E114F1040105110519F4E0E0F0E096C012
:1015E000628173819FEF623879070CF05BC022E85B
:1015F0003FEF261B370B2A3131052CF020E030E07D
:1016000040E050E02AC0B801A701022E04C0769540
:101610006795579547950A94D2F781E090E0A0E04E
:10162000B0E004C0880F991FAA1FBB1F2A95D2F7EC
:101630000197A109B1098E219F21A023B123009711
:10164000A105B10521F081E090E0A0E0B0E09A01B1
:10165000AB01282B392B4A2B5B2BDA01C9018F7781
:101660009070A070B07080349105A105B10539F477
:1016700027FF09C0205C3F4F4F4F5F4F04C0215CE4
:101680003F4F4F4F5F4FE0E0F0E02030A0E03A07DF
:10169000A0E04A07A0E45A0710F0E1E0F0E0790189
:1016A0008A0127C06038710564F5FB01E158FF4FDE
:1016B000D801C7018F779070A070B0708034910509
:1016C000A105B10539F4E7FE0DC080E490E0A0E08B
:1016D000B0E004C08FE390E0A0E0B0E0E80EF91EB7
:1016E0000A1F1B1F17FF05C016950795F794E7946F
:1016F000319687E016950795F794E7948A95D1F788
:1017000005C0EE24FF248701EFEFF0E06E2F679510
:1017100066276795902F9F77D794DD24D7948E2FD7
:101720008695492F462B582F5D29B701CA011F9175
:101730000F91FF90EF90DF900895FC01DB01408155
:1017400051812281622F6F7770E0221F2227221F92
:101750009381892F880F822B282F30E0991F99279A
:10176000991F11969C93119721153105A9F54115E3
:1017700051056105710511F482E037C082E89FEFE1
:1017800013969C938E9312979A01AB0167E0220FF8
:10179000331F441F551F6A95D1F783E08C930DC00A
:1017A000220F331F441F551F12968D919C91139742
:1017B000019713969C938E931297203080E0380700
:1017C00080E0480780E4580758F314962D933D9322
:1017D0004D935C93179708952F3F310579F4411588
:1017E00051056105710519F484E08C93089564FF37
:1017F00003C081E08C9312C01C9210C02F57304060
:1018000013963C932E93129783E08C9387E0440FBA
:10181000551F661F771F8A95D1F7706414964D93F4
:101820005D936D937C93179708951F93DC01FB01E3
:101830009C91923008F447C08081823008F443C004
:10184000943051F411961C91843099F58181682F60
:1018500070E0611B71093FC0843021F0923031F497
:101860008230B9F18181882389F12DC011961C91B4
:1018700011978230F1F081811817D9F412962D91C9
:101880003C911397828193818217930794F02817D4
:101890003907BCF014968D919D910D90BC91A02DAF
:1018A0002481358146815781281739074A075B070C
:1018B00018F4112341F00AC082179307A407B50753
:1018C00040F4112319F061E070E005C06FEF7FEF85
:1018D00002C060E070E0CB011F9108952F923F920B
:1018E0004F925F926F927F928F929F92AF92BF9230
:1018F000CF92DF92EF92FF920F931F93CF93DF93DC
:10190000CDB7DEB7CA1BDB0B0FB6F894DEBF0FBE38
:10191000CDBF09942A88398848885F846E847D8485
:101920008C849B84AA84B984C884DF80EE80FD8087
:101930000C811B81AA81B981CE0FD11D0FB6F894FD
:10194000DEBF0FBECDBFED010895F999FECF92BD68
:1019500081BDF89A992780B50895262FF999FECF71
:101960001FBA92BD81BD20BD0FB6F894FA9AF99ABC
:0A1970000FBE01960895F894FFCF12
:10197A00000000000000000000000000000000005D
:10198A000000000000007F4300000000000000008B
:10199A0040000000000000000000010202030303EF
:1019AA0003040404040404040405050505050505E7
:1019BA0005050505050505050506060606060606C6
:1019CA0006060606060606060606060606060606AD
:1019DA000606060606060606060707070707070796
:1019EA00070707070707070707070707070707077D
:1019FA00070707070707070707070707070707076D
:101A0A00070707070707070707070707070707075C
:101A1A000707070707070707070808080808080845
:101A2A00080808080808080808080808080808082C
:101A3A00080808080808080808080808080808081C
:101A4A00080808080808080808080808080808080C
:101A5A0008080808080808080808080808080808FC
:101A6A0008080808080808080808080808080808EC
:101A7A0008080808080808080808080808080808DC
:101A8A0008080808080808080808080808080808CC
:0A1A9A0008080808080808080800FA
:00000001FF
