:100000000C9434000C9446000C9446000C948E0022
:100010000C9446000C9446000C9446000C94460048
:100020000C9446000C9446000C9446000C94460038
:100030000C9446000C9446000C9446000C94460028
:100040000C9446000C9446000C9446000C94460018
:100050000C9446000C9446000C9446000C94460008
:100060000C9446000C94460011241FBECFEFD8E03C
:10007000DEBFCDBF11E0A0E0B1E001C01D92A23013
:10008000B107E1F70E9432010C944C010C9400007E
:1000900083EA84BD83E085BD16BC10926E0008958E
:1000A000019711F45F9A01C05F986115710511F411
:1000B00017BC01C067BD4130510511F45C9A01C005
:1000C0005C982115310511F418BC089528BD0895D8
:1000D00080E090E030E42998232F2A95F1F7299ABF
:1000E000232F2A95F1F7019688319105A1F70895FC
:1000F00080E090E030E42A98232F2A95F1F72A9A9D
:10010000232F2A95F1F7019688319105A1F70895DB
:1001100081E08093680080936B0008951F920F9296
:100120000FB60F9211248F939F93809100019091AD
:100130000101019690930101809300019F918F919D
:100140000F900FBE0F901F9018950F931F93109252
:1001500001011092000110E005E30E94680080E0B8
:10016000902F9A95F1F78F5F8633D1F71F5F143187
:10017000A1F7809100019091010145973CF180E049
:1001800090E064E670E040E050E024E630E00E9459
:10019000500020E040E45CE9CA010197F1F72F5FCD
:1001A0002233D1F780E090E064E670E041E050E077
:1001B00024E630E00E94500020E040E45CE9CA01FF
:1001C0000197F1F72F5F2233D1F749C01092010157
:1001D0001092000110E005E30E94780080E0902F6B
:1001E0009A95F1F78F5F8633D1F71F5F1431A1F72E
:1001F000809100019091010145973CF180E090E0F1
:1002000064E670E040E050E024E630E00E945000F8
:1002100020E040E45CE9CA010197F1F72F5F223347
:10022000D1F781E090E064E670E040E050E024E641
:1002300030E00E94500020E040E45CE9CA010197F0
:10024000F1F72F5F2233D1F70AC081E090E064E636
:1002500070E041E050E024E630E00E9450001F9141
:100260000F91089582EF8AB98EEF84B98BB18D60BA
:100270008BB9289A299A2A9A83EA84BD83E085BD9E
:1002800016BC10926E0081E08093680080936B0032
:0C02900078940E94A500FDCFF894FFCFE9
:00000001FF
