:100000000C9434000C943E000C943E000C943E0082
:100010000C943E000C943E000C943E000C943E0068
:100020000C943E000C943E000C943E000C943E0058
:100030000C943E000C943E000C943E000C943E0048
:100040000C943E000C943E000C943E000C943E0038
:100050000C943E000C943E000C943E000C943E0028
:100060000C943E000C943E0011241FBECFEFD8E04C
:10007000DEBFCDBF0E9460000C94BB000C9400005A
:1000800083EA84BD83E085BD16BC10926E0008959E
:10009000019711F45F9A01C05F986115710511F421
:1000A00017BC01C067BD4130510511F45C9A01C015
:1000B0005C982115310511F418BC089528BD0895E8
:1000C000CF93DF938AB1806F8AB983EA84BD83E0DE
:1000D00085BD16BC10926E00C0E4DCE981E090E0C2
:1000E00060E570E041E050E020E530E00E9448002B
:1000F00080E090E0FE013197F1F70196823391059F
:10010000C9F780E090E060E070E040E050E020E07F
:1001100030E00E94480080E090E0FE013197F1F766
:10012000019682339105C9F780E090E060E570E0C8
:1001300040E050E020E530E00E94480080E090E0A0
:10014000FE013197F1F7019682339105C9F780E0FE
:1001500090E060E070E040E050E020E030E00E949D
:10016000480080E090E0FE013197F1F7019682337C
:0A0170009105C9F7B3CFF894FFCF53
:00000001FF
