:100000000C9434000C943E000C943E000C943E0082
:100010000C943E000C943E000C943E000C943E0068
:100020000C943E000C943E000C943E000C943E0058
:100030000C943E000C943E000C943E000C943E0048
:100040000C943E000C943E000C943E000C943E0038
:100050000C943E000C943E000C943E000C943E0028
:100060000C943E000C943E0011241FBECFEFD8E04C
:10007000DEBFCDBF0E9440000C9459000C940000DC
:1000800080E184B920E43CE92C9A80E090E0F90119
:100090003197F1F7019684369105C9F72C9880E0E5
:1000A00090E0F9013197F1F7019684369105C9F78F
:0600B000EBCFF894FFCF36
:00000001FF
