:100000000C9434000C943E000C943E000C943E0082
:100010000C943E000C943E000C943E000C943E0068
:100020000C943E000C943E000C943E000C943E0058
:100030000C943E000C943E000C943E000C943E0048
:100040000C943E000C943E000C943E000C943E0038
:100050000C943E000C943E000C943E000C943E0028
:100060000C943E000C943E0011241FBECFEFD8E04C
:10007000DEBFCDBF0E9440000C9462000C940000D3
:1000800088E084B920E038E060E47FE140EA5FE0A6
:1000900009C02B9ACA010197F1F72B98CA01019761
:1000A000F1F72F5F2035A8F320E035B9CB01019798
:1000B000F1F72B98CB010197F1F72F5F2436A9F7C1
:0800C00020E0E7CFF894FFCF28
:00000001FF
