:100000000C9434000C9451000C9451000C94510049
:100010000C9451000C9451000C9451000C9451001C
:100020000C9451000C9460000C9451000C945100FD
:100030000C9451000C9451000C9451000C945100FC
:100040000C9451000C9451000C9451000C945100EC
:100050000C9451000C9451000C9451000C945100DC
:100060000C9451000C94510011241FBECFEFD8E026
:10007000DEBFCDBF11E0A0E0B1E0E4ECF1E002C0F2
:1000800005900D92AA39B107D9F711E0AAE9B1E0BC
:1000900001C01D92AE39B107E1F70E94CD000C946A
:1000A000E0000C9400001092B00087E08093B10053
:1000B00080919C018093B20081E08093700008954C
:1000C0001F920F920FB60F9211248F939F938091DE
:1000D0009C018093B20085B198E0892785B99F91F2
:1000E0008F910F900FBE0F901F90189540919A011D
:1000F00050919B01FA01EE0FFF1FE050FF4F01905E
:10010000F081E02DEF3FF10509F43FC0DA011196CF
:100110003097F1F087E08093B100F0939D01E09378
:100120009C01AA0FBB1FA050BF4F9C918FE0989FCE
:10013000C001112420E030E060E47CE905C0FB014F
:100140003197F1F72F5F3F4F28173907C4F316C0D7
:10015000AA0FBB1FA050BF4F9C918FE0989FC0017A
:10016000112420E030E060E47CE905C0FB01319718
:10017000F1F72F5F3F4F28173907C4F34E5F5F4FEA
:1001800050939B0140939A0108951092B1002B9ACD
:1001900010929B0110929A0108958EEF84B9289ACB
:1001A0001092B00087E08093B10080919C01809311
:1001B000B20081E08093700078940E947600FDCFB9
:0401C000F894FFCFE1
:1001C400F1000200F3000200F4000200F10001005B
:1001D40000000100F1000200F3000200F40002003C
:1001E400F100010000000100F4000200F50002002B
:1001F400F600020000000200F4000200F500020014
:10020400F600020000000200F6000100F700010001
:10021400F6000100F5000100F4000200F100020004
:10022400F6000100F7000100F6000100F5000100EE
:10023400F4000200F1000200F3000200EC000200EE
:10024400F100020000000200F3000200EC000200D2
:0A025400F100020000000200FF00AC
:00000001FF
